:020000040800F2
:100000008006002089010008910100089301000882
:100010009501000897010008990100080000000000
:100020000000000000000000000000009B0100082C
:100030009D010008000000009F010008B5030008B2
:10004000A3010008A3010008A3010008A301000800
:10005000A3010008A301000845020008A30100084D
:10006000A3010008A3010008A3010008A3010008E0
:10007000A3010008A3010008A3010008A3010008D0
:10008000A3010008A3010008A3010008A3010008C0
:10009000A3010008A3010008A3010008A3010008B0
:1000A000A3010008A3010008A3010008A3010008A0
:1000B000A3010008A301000800000000A30100083C
:1000C000A30100080000000000000000A3010008D8
:1000D00000000000A3010008A301000800000000C8
:1000E000A3010008A3010008A301000800F002F822
:1000F00000F03AF80AA090E8000C82448344AAF188
:100100000107DA4501D100F02FF8AFF2090EBAE885
:100110000F0013F0010F18BFFB1A43F0010318473B
:10012000D8030000F8030000103A24BF78C878C153
:10013000FAD8520724BF30C830C144BF04680C60ED
:10014000704700000023002400250026103A28BF35
:1001500078C1FBD8520728BF30C148BF0B60704739
:100160001FB51FBD10B510BD00F031F81146FFF7E7
:10017000F7FF00F0A3F900F04FF803B4FFF7F2FF28
:1001800003BC00F057F800000948804709480047C1
:10019000FEE7FEE7FEE7FEE7FEE7FEE7FEE7FEE737
:1001A000FEE7FEE704480549054A064B7047000094
:1001B000C5030008ED000008800000208006002034
:1001C000800200208002002070477047704775460B
:1001D00000F02CF8AE4605006946534620F00700B3
:1001E000854618B020B5FFF7DDFFBDE820404FF091
:1001F00000064FF000074FF000084FF0000B21F011
:100200000701AC46ACE8C009ACE8C009ACE8C009DD
:10021000ACE8C0098D46704710B50446AFF30080C6
:100220002046BDE81040FFF7A8BF00000048704717
:100230001C00002001491820ABBEFEE7260002008A
:10024000704700000A48006800F0010070B100BF6C
:100250000848006800F001000028F9D1064800783D
:10026000401C0549087001200149086070470000E2
:1002700014040140080C0140000000200F48806970
:1002800040F001000D4988610D48006840F0010010
:100290000B4908600A480830006840F0010008492E
:1002A000083108600120074988600748006840F06D
:1002B00040004FF0E021C1F80001704700100240FB
:1002C000000401400000014000E100E010B500F032
:1002D00001F810BD0CB50020019000903348006873
:1002E00040F480303149086000BF3048006800F4B5
:1002F000003000900198401C0190009818B90198B6
:10030000B0F5A06FF1D12948006800F4003010B1B9
:100310000120009001E0002000900098012843D1C6
:100320002348006840F01000214908600846006832
:1003300020F0030008600846006840F002000860F2
:100340001A484068194948600846406848600846AD
:10035000406840F4806048600846406820F47C10A3
:1003600048600846406840F4E81048600846006865
:1003700040F08070086000BF0C48006800F000701A
:100380000028F9D00948406820F003000749486078
:100390000846406840F00200486000BF03484068DB
:1003A00000F00C000828F9D10CBD0000001002403C
:1003B0000020024002480068401C01490860704764
:1003C0000400002010B51348006840F001001149F6
:1003D000086008464068104908400E4948600846D1
:1003E00000680E4908400B4908600846006820F480
:1003F000802008600846406820F4FE0048604FF402
:100400001F008860FFF762FF4FF00060044908603A
:1004100010BD0000001002400000FFF8FFFFF6FED4
:1004200008ED00E00E48806940F004000C49886146
:100430000846806940F0080088610020094908608A
:10044000202008600220074910310860002006497A
:1004500008600846006840F0080008607047000027
:100460000010024000080140000C014010B5104887
:10047000006840F2E731B0FBF1F04FF0E021486155
:1004800048170F21002804DB0A07130E094A1354EA
:1004900006E00A07140E084A00F00F031B1FD4548D
:1004A00000BF00204FF0E02188610620086110BDE8
:1004B0000800002000E400E018ED00E0FFF7D6FFA0
:1004C000FFF7B0FFFFF7DAFE10E0094800780128D7
:1004D00002D102200749086005480078022805D1AA
:1004E0000449091F0860002001490870EDE7000079
:1004F000000000201408014018050008000000203A
:100500001C00000028010008340500081C00002021
:100510006406000044010008000000000000000024
:1005200000A24A04000000000000000001020304D1
:0405300006070809A9
:040000050800018965
:00000001FF
